:020000040800F2
:10000000384F0020010100080501000817670008AB
:10001000090100081F6700082767000800000000AA
:100020000000000000000000000000000F010008B8
:10003000110100080000000013010008B565000868
:100040001701000817010008170100081701000830
:100050001701000817010008170100081701000820
:100060001701000817010008170100081701000810
:100070001701000817010008170100081701000800
:1000800017010008170100081701000817010008F0
:1000900017010008170100081701000817010008E0
:1000A00017010008170100081701000817010008D0
:1000B0001966000817010008170100081701000859
:1000C00017010008170100081701000817010008B0
:1000D00017010008B765000817010008170100089C
:1000E000170100081701000817010008DFF80CD0FD
:1000F0000CF0FAFB0048004723A10008384F00200D
:1001000005480047FEE7FEE7FEE7FEE7FEE7FEE7FD
:10011000FEE7FEE7FEE7FEE7ED0000080E49086097
:1001200070470D49486070470B49886070474AF630
:10013000AA200949086070474CF6CC40064908607F
:10014000704701460020044AD2680A4201D00120CB
:1001500000E000207047000000300040DA480068EE
:1001600040F00100D849086008464068D749084077
:10017000D549486008460068D5490840D24908601A
:100180000846006820F4802008600846406820F493
:10019000FE004860002088607047CB49096821F460
:1001A0008031C94A11601146096821F4802111602B
:1001B000B0F5803F03D0B0F5802F0ED106E0C249E4
:1001C000096841F48031C04A116007E0BE490968FE
:1001D00041F4A021BC4A116000E000BF00BF70479D
:1001E00010B501460022002300204A11012A02D145
:1001F000B54C236806E0022A02D1B34C236A01E021
:10020000B14C636A01F01F02012494401C4201D0EA
:10021000012000E0002010BD70B50024002500265C
:1002200000BF3120FFF7DCFF0646641C16B9B4F5A9
:10023000A06FF6D13120FFF7D3FF08B1012500E010
:100240000025284670BD014600209F4A106820F016
:10025000F80040EAC100106070479E49086070478E
:1002600002460020984B586820F47C1042EA0103B3
:100270001843954B58607047964908667047014689
:100280000020914A506820F00300084350607047F6
:100290008D48406800F00C007047014600208A4AF3
:1002A000506820F0F000084350607047014600207D
:1002B000854A506820F4E06008435060704701466A
:1002C0000020814A506820F4605040EAC10050602C
:1002D000704729B17C4A527A02437B4B5A7206E03E
:1002E000794A527AC343DBB21A40774B5A7270474D
:1002F00079490860704701460020734A506820F42D
:1003000040400843506070470021744A11706E4AA3
:1003100082F82010012802D0042808D103E001212E
:100320006E4A117004E005216C4A117000E000BFB4
:1003300000BF70476A49086070476349096A014312
:10034000614A1162704767490860704730B5002103
:100350000022002400235C4D6D6805F00C0121B1E2
:10036000042905D0082923D105E05F4D056022E06E
:100370005D4D05601FE0544D6D6805F47012022557
:1003800005EB9242504D6D6805F480341CB9574D11
:10039000554305600BE04C4D6D6815F4003F03D0EC
:1003A000524D5543056002E04F4D5543056002E054
:1003B0004D4D056000BF00BF434D6D6805F0F00175
:1003C00009094B4D6B5C0568DD4045603E4D6D682D
:1003D00005F4E061090A464D6B5C4568DD408560C7
:1003E000394D6D6805F46051C90A414D6B5C456833
:1003F000DD40C560344D6D6805F44041890B3D4DCD
:100400006B5CC568B5FBF3F5056130BD29B12E4ABB
:10041000526902432C4B5A6104E02B4A52698243D1
:10042000294B5A61704729B1274A92690243264BEA
:100430009A6104E0244A92698243234B9A6170478F
:1004400029B1214AD26902431F4BDA6104E01E4AF6
:10045000D26982431C4BDA61704729B11A4AD268CB
:100460000243194BDA6004E0174AD2688243164B04
:10047000DA60704729B1144A12690243124B1A61BB
:1004800004E0114A126982430F4B1A6170471A49FE
:10049000086070470F49C86470470B49C8717047BE
:1004A0000948406A40F08070074948627047014639
:1004B0000020054A92680A4201D0012000E0002095
:1004C0007047014988727047001002400000FFF831
:1004D000FFFFF6FE00004242D800424220100240D8
:1004E000800442423C04424200127A0000093D006E
:1004F00000000020100000204004424210B50446D5
:10050000BE4820180FD0B0F5806F16D0B0F5784FE8
:100510001DD101210803FFF7A0FF00214FF48050F7
:10052000FFF79BFF14E001218803FFF7A3FF0021E1
:100530004FF48040FFF79EFF0AE00121C803FFF758
:1005400099FF00214FF40040FFF794FF00E000BF47
:1005500000BF10BD10B50022028802F441520B8882
:100560004C8823438C882343CC8823430C89234322
:100570004C8923438C892343CC8923431A4302802B
:10058000838B4FF2FF74234083830B8A038210BD59
:100590002DE9F04786B005460C464FF000090227CA
:1005A0004FF000084FF0010A0026A88B4FF24001DF
:1005B0000840A88302202884B5F81C9020890228CE
:1005C00001D100BF2FE0A08810B94FF0010A01E06F
:1005D0004FF0020A01A8FFF7B9FEE088B0F5007FEE
:1005E0000AD1019800EB8000400021890902B0FB8C
:1005F000F1F0401D86B20BE04FEA4A1021894843D2
:10060000019901EB81014900B1FBF0F0401D86B278
:100610000A20B6FBF0F606F00108A6EB0800C0F3CE
:100620004F074FEA0828022F01DBFF2F02DD0227C8
:100630004FF0000847EA0800E18808432884208832
:1006400040F4006061880843A18808436189084339
:1006500040EA0909A5F81C9006B0BDE8F087002122
:10066000018041808180C180018141818181C1817E
:100670000721018270470021018041808180C18073
:100680000221018100214181704721B1028842F09D
:100690004002028004E002884FF6BF731A400280D5
:1006A000704721B1828B42F48062828304E0828BA6
:1006B0004FF6FF331A408283704770B50024002341
:1006C0000C110125A540ABB21AB185881D43858068
:1006D00004E08588DE43B6B23540858070BD10B534
:1006E0001AB183880B43838004E08388CC43A4B28F
:1006F0002340838010BD81817047014688897047FF
:10070000A1F57E42FF3A04D0028842F48072028052
:1007100004E002884FF6FF631A400280704721B15F
:10072000828842F00402828004E082884FF6FB73E4
:100730001A408280704702884FF2FF731A4002808D
:1007400002880A4302807047018841F48051018089
:10075000704721B1028842F40052028004E002880E
:100760004DF6FF731A4002807047024600200129AF
:1007700001D0108B00E0908A70470146088A7047CC
:10078000B1F5804F04D1028842F48042028004E037
:1007900002884BF6FF731A40028070470246002021
:1007A00013890B4201D0012000E000207047CA43AA
:1007B00002817047F0B50246002000240023002586
:1007C00001F00F070126BE40B4B20B1101269E4076
:1007D000B3B2968806EA03051689264202D00DB107
:1007E000012000E00020F0BD10B5002201F00F0450
:1007F0000123A3409AB2D343038110BD00C8FFBFB9
:1008000010B50446FB49601A8C4245D00CDCB4F1AB
:10081000804F1DD0F848201823D0B0F5806F29D024
:10082000B0F5006F54D12EE0B0F5806F3DD0B0F53B
:100830008E3F03D0B0F5923F4AD13FE00121C8027C
:10084000FFF70BFE00214FF40060FFF706FE40E0CB
:1008500001210846FFF70EFE00210120FFF70AFEE6
:1008600037E001210220FFF705FE00210220FFF7FB
:1008700001FE2EE001210420FFF7FCFD00210420F1
:10088000FFF7F8FD25E001210820FFF7F3FD002127
:100890000820FFF7EFFD1CE001211020FFF7EAFD23
:1008A00000211020FFF7E6FD13E001212020FFF7D3
:1008B000E1FD00212020FFF7DDFD0AE001214803D2
:1008C000FFF7CBFD00214FF40050FFF7C6FD00E01D
:1008D00000BF00BF10BD028802F08F020280CA88EC
:1008E0004B881A4303881A4302808A8882850A88C3
:1008F0000285C24A904202D0C14A904201D10A7A8E
:10090000028601228282704770B5002400220023F3
:10091000058C4FF6FE7635400584028C8388048B67
:100920004FF68F752C400D882C43751E2A400D897B
:100930002A434D882A43CD888586B04DA84202D0EF
:10094000AF4DA84213D14FF6F7752A404D892A437F
:100950004FF6FB752A408D882A4347F6FF652B40EA
:1009600047F6FF552B408D892B43CD892B43838040
:100970000483028470BD70B5002400220023058C1E
:100980004FF6EF7635400584028C8388048B48F659
:10099000FF752C400D882D0644EA15444FF6DF758F
:1009A0002A400D892D0542EA15424D882D0542EA5F
:1009B0001542CD880587914DA84202D0904DA8429E
:1009C0001BD14FF67F752A404D892D0542EA15420D
:1009D0004FF6BF752A408D882D0542EA154247F62D
:1009E000FF352B4047F2FF752B408D89AD0443EA5C
:1009F0001543CD89AD0443EA154383800483028403
:100A000070BD70B5002400220023058C4FF6FF66F0
:100A100035400584028C8388848B4FF68F752C407B
:100A20000D882C434FF6FF552A400D892D0642EACA
:100A300015424D882D0642EA1542CD8885876F4DB7
:100A4000A84202D06E4DA8421BD14FF2FF752A403A
:100A50004D892D0642EA15424FF6FF352A408D8812
:100A60002D0642EA154246F6FF752B4045F6FF7506
:100A70002B408D892D0543EA1543CD892D0543EA89
:100A8000154383808483028470BD70B500230022E7
:100A90000024058C4EF6FF7635400584028C848850
:100AA000838B48F6FF752B400D882D0643EA1543CE
:100AB0004DF6FF752A400D892D0742EA15424D88F3
:100AC0002D0742EA1542CD88A0F840504B4DA84270
:100AD00002D04B4DA84205D1C4F30D048D89AD055C
:100AE00044EA154484808383028470BD828B4FF274
:100AF000FF331A408283828B0B0642EA13428283C1
:100B00007047F0B50C461546002100220026078CE0
:100B10004EF6FF7C07EA0C070784818B028C2707BF
:100B20003E0C40F6FF4739402F063F0C4FEA037C4E
:100B300047EA1C4739434DF6FF773A4046F4805761
:100B40003A4381830284F0BD828B4FF6F3731A40DF
:100B50008283828B0A4382837047F0B50C46154628
:100B6000002100220026078C4FF6FF6C07EA0C07D5
:100B70000784818B028C27063E0C4FF60C77394098
:100B80001F0545EA174739434FF6FF573A4046F4E9
:100B900080773A4381830284F0BD028B4FF2FF33AA
:100BA0001A400283028B0B0642EA1342028370470B
:100BB000F0B50C461546002100220026078C4FF6A2
:100BC000EF7C07EA0C070784018B028C27053E0C9B
:100BD00040F6FF4739401F0741EA17412F0641EA17
:100BE00017414FF6DF773A4046F010073A4301834A
:100BF0000284F0BD0010004000FCFFBF002C01404B
:100C000000340140028B4FF6F3731A400283028BCB
:100C10000A4302837047F0B50C46154600210022B6
:100C2000068C4FF6FE773E400684018B028C4FF611
:100C30000C7631401E0545EA164631437E1E324091
:100C400044F00106324301830284F0BD70B50546CD
:100C50000C46208850B92389A28861882846FFF76E
:100C6000DAFFE1882846FFF7CDFF25E02088042839
:100C70000AD12389A28861882846FFF799FFE18875
:100C80002846FFF78AFF17E0208808280AD1238921
:100C9000A28861882846FFF760FFE1882846FFF7B1
:100CA00053FF09E02389A28861882846FFF729FFBE
:100CB000E1882846FFF71AFF70BD2DE9F04105468F
:100CC0000C4600260127608808B9022600E00026AD
:100CD000A088012801D1022700E001272088A0B9BF
:100CE0002389A28861882846FFF795FFE188284676
:100CF000FFF788FF23893A4631462846FFF758FF19
:100D0000E1882846FFF749FF13E02389A28861881C
:100D10002846FFF74DFFE1882846FFF73EFF23896D
:100D20003A4631462846FFF776FFE1882846FFF726
:100D300069FFBDE8F0810A884B881A438B881A4303
:100D4000CB881A430B891A434B891A438B891A4360
:100D5000A0F8442070474FF6FF7181800021018088
:100D6000C1804180017270470021018041808180F3
:100D7000C180018141818181C18170470021018051
:100D80004180012181800021C180018170470021C3
:100D9000018041808180C1800181418181817047D2
:100DA00021B1028842F00102028004E0028840F290
:100DB000FE331A400280704731B1B0F8442042F44B
:100DC0000042A0F8442005E0B0F84420C2F30E022F
:100DD000A0F84420704710B51AB183890B43838172
:100DE00004E08389CC43A4B22340838110BD818277
:100DF000704741EA0203A0F84830704710B51AB1B5
:100E000083890B43838104E08389CC43A4B22340CC
:100E1000838110BD01894FF6F8721140018170473E
:100E20000A46002101894FF68F7319401143018151
:100E3000704730B504460D4629462046FFF7F0FFBF
:100E4000208940F00700208130BD2DE9F0410446A3
:100E50000D4616461F46602D06D13B4601223146FF
:100E60002046FFF7A5FE05E03B460122314620461D
:100E7000FFF7D1FE29462046FFF7D2FF208940F038
:100E800007002081BDE8F08170B50C460021018982
:100E9000C9B244EA02051E0645EA16452943018106
:100EA00070BD2DE9F04105460E46174698460024D0
:100EB00043463A4631462846FFF7E6FF2C894FF66F
:100EC000F8710C4044F007044FF68F710C4044F069
:100ED00070042C81BDE8F081F0B504460D4616463D
:100EE0001F463B46324629462046FFF7CDFF208964
:100EF00040F480402081F0BD0185828270470A461F
:100F00000021018840F28F3319401143018070475E
:100F1000F0B50C4615461E4600210022002301892B
:100F2000028B038C4FF6F877394021434FF6FC478C
:100F30003A4040F201173A434FF6DD773B40370520
:100F400045EA17473B43018102830384F0BD0A460B
:100F50000021018B4FF68F731940114301837047B5
:100F60000A460021018B48F6FF731940130641EA37
:100F70001341018370470A460021818B4FF68F731E
:100F800019401143818370470A460021818B48F63E
:100F9000FF731940130641EA13418183704721B161
:100FA000028842F08002028004E0028840F27F332F
:100FB0001A400280704721B1828842F00402828088
:100FC00004E082884FF6FB731A408280704721B19B
:100FD000828842F00802828004E082884FF6F7732C
:100FE0001A408280704721B1828842F001028280DB
:100FF00004E082884FF6FE731A40828070470A46EA
:101000000021018B4FF6F77319401143018370479C
:101010000A460021018B4FF2FF731940130641EA83
:101020001341018370470A460021818B4FF6F77305
:1010300019401143818370470A460021818B4FF28A
:10104000FF731940130641EA1341818370470A4632
:101050000021018B4FF6FB73194011430183704748
:101060000A460021018B4FF6FF331940130641EA6F
:101070001341018370470A460021818B4FF6FB73B1
:1010800019401143818370470A460021818B4FF636
:10109000FF331940130641EA1341818370470A4622
:1010A0000021018B4FF67F73194011430183704774
:1010B0000A460021018BC1F30E01130641EA1341D8
:1010C000018370470A460021818B4FF67F731940D8
:1010D0001143818370470A460021818BC1F30E01C1
:1010E000130641EA1341818370470A460021018CAF
:1010F0004FF6FD7319401143018470470A460021E1
:10110000018C4FF6F77319401143018470470A466A
:101110000021018C4FF6DF731940130541EA13419A
:10112000018470470A460021018C4FF67F731940F5
:10113000130541EA1341018470470A460021018CDE
:101140004FF6FF531940130641EA134101847047DB
:101150000A460021018C4FF2FF731940130641EA41
:101160001341018470470A460021018C4DF6FF733C
:101170001940130741EA13410184704710B5048CEC
:1011800001238B40DB439BB223400384038C02FA90
:1011900001F4A4B22343038410BD10B5048C0423CE
:1011A0008B40DB439BB223400384038C02FA01F49F
:1011B000A4B22343038410BD30B5048C01238B40BB
:1011C000DB439BB22340038409B1082918D100F105
:1011D000180303EB61031B684FF68F74234000F183
:1011E000180404EB6104236000F1180303EB6103AE
:1011F0001B68134300F1180404EB6104236021E031
:101200000B1F9CB200F1180303EB64031B6848F644
:10121000FF7423400C1FA5B200F1180404EB650411
:1012200023600B1F9CB200F1180303EB64031B68DF
:10123000140643EA14430C1FA5B200F1180404EB92
:101240006504236030BD21B1028842F002020280B1
:1012500004E0028840F2FD331A400280704721B159
:10126000028842F00402028004E0028840F2FB336C
:101270001A400280704721B1828842F08002828049
:1012800004E082884FF67F731A408280704702889C
:1012900040F2F7331A40028002880A430280704706
:1012A00082884FF68F731A40828082880A43828038
:1012B000704702894FF6F8731A40028102890A4387
:1012C0000281704702894FF67F731A4002810289BA
:1012D0000A43028170478184704781857047818607
:1012E00070470187704781877047A0F840107047AA
:1012F0000288D2B2028002880A4302807047014607
:10130000888E70470146088F70470146888F704766
:101310000146B1F8400070470146888C704701468D
:10132000088D704702460020138A0B4201D001202D
:1013300000E000207047CA430282704730B5024681
:10134000002000230024158A05EA0103958905EA97
:10135000010413B10CB1012000E0002030BDCA43EC
:101360000282704710B50446D949601A8C422BD0CE
:1013700006DCD848201813D0B0F5806F38D119E0BA
:10138000B0F5806F2AD0B0F56C4F31D101218803C0
:10139000FFF763F800214FF48040FFF75EF828E084
:1013A00001214804FFF766F800214FF40030FFF7F1
:1013B00061F81EE001218804FFF75CF800214FF47A
:1013C0008020FFF757F814E00121C804FFF752F816
:1013D00000214FF40020FFF74DF80AE00121080535
:1013E000FFF748F800214FF48010FFF743F800E0C2
:1013F00000BF00BF10BD2DE9F04786B005460E4680
:101400000024A24600BF00BF00272F462C8A4CF6BE
:10141000FF700440F08804432C82AC894EF6F31030
:101420000440B08831890843718908430443AC8182
:10143000AC8A4FF6FF400440B0890443AC8201A857
:10144000FEF784FFA448874202D1DDF810A001E036
:10145000DDF80CA00AEBCA0000EB0A103168890025
:10146000B0FBF1F86420B8FBF0F00401200964211E
:1014700001FB1089322000EB0910B0FBF1F000F005
:101480000F0004432C8106B0BDE8F0874FF41651DD
:10149000016000218180C18001810C2141810021F6
:1014A0008181704710B502460020108A4FF2FF0379
:1014B00018400B884C8823438C882343CC882343D3
:1014C0001843108210BD0021018041808180C180BD
:1014D000704721B1828942F40052828104E08289FE
:1014E0004DF6FF731A4082817047F0B50346002421
:1014F0000026002500201846C1F3421401F01F0603
:10150000012707FA06F5012C01D10C3004E0022C6A
:1015100001D1103000E014301AB107682F43076082
:1015200002E00768AF430760F0BD10B51AB1838AC7
:101530000B43838204E0838ACC43A4B2234083829A
:1015400010BD028A4FF6F0731A400282028A0A43E3
:101550000282704782894FF2FF731A40828182892A
:101560000A438281704721B1828942F0020282815E
:1015700004E082894FF6FD731A4082817047028A27
:101580004FF6DF731A400282028A0A4302827047D2
:1015900021B1028A42F48042028204E0028A4BF6C0
:1015A000FF731A4002827047C1F3080282807047BD
:1015B00001468888C0F308007047818941F0010125
:1015C00081817047028BD2B20283028B42EA0122F0
:1015D00002837047028B02F47F420283028B0A432C
:1015E0000283704721B1828A42F02002828204E0A5
:1015F000828A4FF6DF731A408282704721B1828A55
:1016000042F01002828204E0828A4FF6EF731A40A1
:101610008282704721B1828A42F00802828204E00D
:10162000828A4FF6F7731A4082827047828A4FF699
:10163000FB731A408282828A0A438282704721B1F8
:10164000828A42F00202828204E0828A4FF6FD73AF
:101650001A40828270470246002013880B4201D054
:10166000012000E000207047CA430280704770B537
:1016700002460B460024002100250020C3F342153A
:1016800003F01F01012606FA01F1012D02D196890E
:10169000314006E0022D02D1168A314001E0968ADF
:1016A00031401C12012606FA04F41688344011B1A8
:1016B0000CB1012000E0002070BD10B50022002315
:1016C0000A1201249440A3B2DC43048010BD000040
:1016D000004C004000BCFFBF00380140002100204A
:1016E000434A126842F48032414B1A6000BF404ABC
:1016F000126802F40030491C10B9B1F5A06FF6D1A0
:101700003B4A126812F4003F01D0012000E00020A3
:10171000012843D1374A126842F01002354B1A6053
:101720001A46126822F003021A601A46126842F042
:1017300002021A602E4A52682D4B5A601A465268AD
:101740005A601A46526842F480625A601A465268D9
:1017500022F47C125A601A46526842F4E8125A6027
:101760001A46126842F080721A6000BF204A12685E
:1017700012F0007FFAD01E4A526822F003021C4B7E
:101780005A601A46526842F002025A6000BF184A74
:10179000526802F00C02082AF9D101E000BFFEE70E
:1017A000704710B5FFF79AFF10BD10B510480068DC
:1017B00040F001000E490860084640680E490840A4
:1017C0000B494860084600680C4908400849086011
:1017D0000846006820F4802008600846406820F42D
:1017E000FE00486000208860FFF7DBFF10BD0000AE
:1017F00000100240002002400000FFF8FFFFF6FE4C
:1018000036490143364A1160704770B50021002304
:101810000F22C4784CB3324C246804F4E064C4F55D
:10182000E0644FEA1421C1F1040322FA01F2447882
:1018300004FA03F1847804EA020444EA01014FEA5D
:101840000111284C0678A155047804F01F054FF0CB
:10185000010404FA05F405784FEA65154FF0E02617
:1018600006EB8505C5F8004109E0047804F01F0582
:101870000124AC401C4D0678761145F8264070BD19
:101880001A4A0A4002431A4B1A60704741B1194A7A
:10189000126842EA00024FF0E023C3F8102D07E07F
:1018A000144A126822EA00024FF0E023C3F8102D18
:1018B0007047042808D14FF0E021096941F0040184
:1018C0004FF0E022116107E04FF0E021096921F0BB
:1018D00004014FF0E0221161704700000000FA059A
:1018E0000CED00E000E400E080E100E080FFFF1F7D
:1018F00008ED00E010ED00E001460020F84A106815
:1019000000F03800084310607047F549096821F07D
:101910000801F34A116011460968014311607047DC
:10192000EF49096821F01001ED4A1160114609687C
:10193000014311607047EB48E9494860EA48486054
:101940007047E748006940F08000E549086170474A
:101950000420E349C96801F00101012901D10120F6
:101960000EE0DF49C96811F0040F01D0022007E042
:10197000DB49C96811F0100F01D0032000E00420FA
:1019800070470020FF2000E0401E0028FCD1704777
:1019900070B504460425FFF7DBFF054605E0FFF7B9
:1019A000F0FFFFF7D5FF0546641E012D01D1002C85
:1019B000F5D104B90525284670BD70B50546042447
:1019C00040F6FF70FFF7E4FF0446042C19D1C44829
:1019D000006940F00200C24908610846456100699B
:1019E00040F04000086140F6FF70FFF7D1FF044669
:1019F000012C06D0BA48006941F6FD710840B8498B
:101A00000861204670BD10B5042440F6FF70FFF752
:101A1000BFFF0446042C18D1B148006940F004000F
:101A2000AF4908610846006940F04000086140F68F
:101A3000FF70FFF7ADFF0446012C06D0A8480069EF
:101A400041F6FB710840A6490861204610BD10B55B
:101A5000042440F6FF70FFF79BFF0446042C3CD1A2
:101A6000A0489F498860A04888600846006940F007
:101A7000200008610846006940F04000086140F617
:101A8000FF70FFF785FF0446042C1DD194480069C0
:101A900041F6DF710840924908610846006940F04C
:101AA00010000861A520914908804FF00F00FFF752
:101AB0006FFF0446012C10D08948006941F6EF7190
:101AC00008408749086108E0012C06D08448006975
:101AD00041F6EF71084082490861204610BD70B59B
:101AE00005460E4604240F20FFF752FF0446042C3F
:101AF00025D17B48006940F00100794908612E80BA
:101B00000F20FFF745FF0446042C0FD1300C6880EE
:101B10000F20FFF73DFF0446012C10D070480069EC
:101B200041F6FE7108406E49086108E0012C06D0BC
:101B30006B48006941F6FE7108406949086120461A
:101B400070BD70B505460E4604240F20FFF720FF38
:101B50000446042C13D16248006940F0010060493A
:101B600008612E800F20FFF713FF0446012C06D0DA
:101B70005B48006941F6FE710840594908612046FA
:101B800070BD70B505460E4604240F20FFF700FF18
:101B90000446042C17D15348514988605248886044
:101BA0000846006940F0100008612E800F20FFF702
:101BB000EFFE0446012C06D04948006941F6EF715A
:101BC000084047490861204670BD2DE9F0470446AA
:101BD0004FF6FF763746B046B1460425E443E6B2F9
:101BE000C4F30727C4F307484FEA14690F20FFF72F
:101BF000CFFE0546042D3ED13A48394988603A481F
:101C000088600846006940F010000861FF2E06D089
:101C1000374806804FF00F00FFF7BAFE0546042D47
:101C200008D1FF2F06D0334807804FF00F00FFF791
:101C3000AFFE0546042D09D1B8F1FF0F06D02E489E
:101C4000A0F80C880F20FFF7A3FE0546042D09D14C
:101C5000B9F1FF0F06D02848A0F80E980F20FFF723
:101C600097FE0546012D06D01D48006941F6EF712B
:101C700008401B4908612846BDE8F08770B5054655
:101C8000042440F6FF70FFF783FE0446042C50D175
:101C9000144813498860144888600846006940F079
:101CA000200008610846006940F04000086140F6E5
:101CB000FF70FFF76DFE0446042C31D1084800691F
:101CC00041F6DF710840064908610846006940F0A6
:101CD0001000086195B100200449088011E000005F
:101CE0000020024023016745AB89EFCD00F8FF1FBC
:101CF00008F8FF1F0AF8FF1F00F0FF1FA520454945
:101D0000088040F6FF70FFF743FE0446012C10D018
:101D10004148006941F6EF7108403F49086108E019
:101D2000012C06D03C48006941F6DF7108403A4971
:101D30000861204670BD2DE9F04107460D46164664
:101D40000424364834498860354888600F20FFF7FE
:101D50001FFE0446042C1AD12F48006940F01000E1
:101D60002D49086147EA0500304340F0F8002D494D
:101D700008804FF00F00FFF70BFE0446012C06D041
:101D80002548006941F6EF71084023490861204663
:101D9000BDE8F0812048C069800870471E48006A8D
:101DA000704700201C49C96911F0020F01D00120C1
:101DB00000E00020704700201749096811F0200F4B
:101DC00001D0012000E00020704729B1124A1269B9
:101DD0000243114B1A6104E00F4A126982430E4B11
:101DE0001A61704701460020012908D10A4AD269C8
:101DF00012F0010F01D0012008E0002006E0064AA1
:101E0000D2680A4201D0012000E000207047024958
:101E1000C860704700F8FF1F00200240230167459B
:101E2000AB89EFCD02F8FF1F10B50446C549601A13
:101E30008C422FD009DCC448201810D0B0F5806F38
:101E400016D0B0F5006F4AD11BE0B0F5806F2AD0F4
:101E5000B0F5006F30D0B0F5406F40D135E00121D2
:101E60000420FEF7FAFA00210420FEF7F6FA37E024
:101E700001210820FEF7F1FA00210820FEF7EDFA13
:101E80002EE001211020FEF7E8FA00211020FEF7D5
:101E9000E4FA25E001212020FEF7DFFA00212020CE
:101EA000FEF7DBFA1CE001214020FEF7D6FA002104
:101EB0004020FEF7D2FA13E001218020FEF7CDFA90
:101EC00000218020FEF7C9FA0AE001210802FEF78E
:101ED000C4FA00214FF48070FEF7BFFA00E000BFA3
:101EE00000BF10BD10B501210846FEF7B6FA00216B
:101EF0000120FEF7B2FA10BD2DE9F041024600259F
:101F00000026002000230024002791F803C00CF0D5
:101F10000F0591F803C01CF0100F03D091F802C018
:101F20004CEA0505B1F800C01CF0FF0F31D0146871
:101F300000202BE04FF0010C0CFA00F3B1F800C0C8
:101F40000CEA03069E4220D183004FF00F0C0CFADE
:101F500003F7BC4305FA03FC4CEA040491F803C000
:101F6000BCF1280F06D14FF0010C0CFA00FCC2F8AE
:101F700014C00AE091F803C0BCF1480F05D14FF03E
:101F8000010C0CFA00FCC2F810C0401C0828D1D388
:101F90001460B1F800C0BCF1FF0F34DD54680020BC
:101FA0002EE000F1080C4FF0010808FA0CF3B1F82C
:101FB00000C00CEA03069E4221D183004FF00F0CB3
:101FC0000CFA03F7BC4305FA03FC4CEA040491F84D
:101FD00003C0BCF1280F05D100F1080C08FA0CF879
:101FE000C2F8148091F803C0BCF1480F07D100F18A
:101FF000080C4FF0010808FA0CF8C2F81080401CD9
:102000000828CED35460BDE8F0814FF6FF710180FF
:10201000022181700421C17070470246002093683C
:102020000B4201D0012000E0002070470146886883
:1020300080B2704702460020D3680B4201D00120D5
:1020400000E0002070470146C86880B27047016117
:102050007047416170470AB1016100E0416170471A
:10206000C16070474FF480320A43826181618261AE
:1020700082698269704702460020344B18684FF627
:102080008073184040EA02100843304B18607047D4
:102090002F49C8617047F0B50A460023002400218B
:1020A00000252A4E7168C0F3034583B200F4401640
:1020B000B6F5401F08D121F07061244E766826F0F5
:1020C0007066224F7E6012E000F48016B6F5801F25
:1020D00006D1032606FA05F4A14341F0706106E03B
:1020E000460D360103FA06F6B14341F0706122B1A4
:1020F000460D360103FA06F63143144E7160F0BD09
:1021000030B500228B071C0F0F2303FA04F20F4B8C
:1021100008338C1053F8243093430C4C08348D1042
:1021200044F8253023468C1053F824308C07240FB4
:1021300000FA04F42343054C08348D1044F825308C
:1021400030BD00000014014000F8FEBF0000014057
:1021500000002042FC4908807047C2780A44FB4BCB
:10216000DA70827802EB21229A7042785A700278F3
:102170001A701A469278B2EB212F0ADA1A46527870
:10218000521C5A701A4652781AB91A461278521CC2
:102190001A70EE4AD278CBB29A4212DAEB4A9278AF
:1021A000521CEA4B9A701A46927852B91A465278E3
:1021B000521C5A701A4652781AB91A461278521C92
:1021C0001A707047F0B50B46144619461E19751E55
:1021D0000BE04E780F7806EB0726B2B28618B0B245
:1021E000904201DA461CB0B2891CA942F1D3A9423F
:1021F0000AD10E78002707EB0626B2B28618B0B2D5
:10220000904201DA461CB0B2F0BD0146080240EA35
:10221000212080B2704770B504460D462A462146FB
:102220000020FFF7CFFF0646FFF7EFFF70BD10B5A8
:102230001422C7490020FFF7C5FF044614B94FF622
:10224000FF7002E02046FFF7E0FF80B210BD70B5DE
:102250000446BF480E38417C007C01EB0020143856
:1022600085B2281986B20822B9490C313046FFF7E9
:10227000A9FF06462A46B64914313046FFF7A2FFA9
:10228000064616B94FF6FF7002E03046FFF7BDFF75
:1022900080B270BD10B50620FFF7D9FF10BD002039
:1022A000AC4908700AE00020AB49AA4A127821F82C
:1022B0001200A8480078401CA6490870A54800787C
:1022C0000A28F0DB0020A34908700BE00020A34996
:1022D000A04A127801EB421148769E480078401CD3
:1022E0009C4908709B4800780328EFDB4FF480601E
:1022F0009B4908800020974908700BE0002099490D
:10230000944A127801EB0211888092480078401CB0
:10231000904908708F4800780A28EFDB704730B585
:1023200004460D4600BF8E480088401C8C4908803A
:1023300008460088B0F5FA4F02DB4FF48050088061
:1023400000208449087013E084488249097800EB32
:102350004112507E38B182480088FFF756FF9188BD
:10236000884200D1DFE77B480078401C794908703B
:10237000784800780328E7DB0022002075490870C0
:1023800016E076487349097800EB4113587E08B986
:102390001A4611E0587E072805D11AB1987E917E21
:1023A000884200DD1A466B480078401C6949087075
:1023B000684800780328E4DB00BF0AB9002030BD7C
:1023C000022050766848007810736748417851734E
:1023D00081789173C178D17340F2A6505082908277
:1023E000012010820020D076012090760320107604
:1023F000002090751020D07559480088FFF705FF20
:102400009080D58000BF208810806088508000BFF9
:102410001046D4E730B503460C4600BF504800884C
:10242000401C4F49088008460088B0F5FA4F02DB8F
:102430004FF48050088000204649087011E0484859
:102440000088FFF7E2FE4749424D2D7801EB051168
:102450008988884200D1E1E73E480078401C3D4928
:1024600008703C4800780A28E9DB0022002039493E
:10247000087011E03B483749097800EB011080886B
:1024800028B938483349097800EB011208E031488F
:102490000078401C2F4908702E4800780A28E9DB94
:1024A00000BF0AB9002030BD2D48008800022C4929
:1024B000098840EA21209080D48013B90020106060
:1024C00005E000BF188810805888508000BF802029
:1024D00010721046E7E700211E4A117012E01E49F3
:1024E0001C4A127831F81210814206D100211A4A92
:1024F000184B1B7822F81310704716490978491CAD
:10250000144A1170134909780A29E8DB00BFF3E780
:102510000021104A117010E00F490E4A127831F86C
:10252000121029B90C490B4A127821F81200704791
:1025300008490978491C074A1170064909780A298F
:10254000EADB00BFF3E70000400000204800002065
:10255000460700204C000020780D0020180D0020B8
:10256000460000208C0D0020420000202DE9F041A3
:10257000F948008870B91422F849F9480AF00CF9B2
:102580002820F54908800020F64908701721F648F0
:102590000AF029F9F1480E38408BF14989898842BF
:1025A0007ED1EE480E38818BED48C089814277D1CB
:1025B000EA480E38C08BEA49098A884270D1E74858
:1025C0000E38018CE648408A814269D1E3480E38D2
:1025D000807CE3490979884262D1E0480E38C17CA9
:1025E000DF48407981425BD1DC480E38417C007C79
:1025F00001EB0021D9480E38807B00F00F00A1EBE1
:10260000800085B2D5480E38417D007D01EB002069
:10261000C004040C40F2CE50844204DC601940F245
:10262000CE51884203DD0020CB490880E4E0CB4A4C
:102630000E3A927B02F00F02C84B03EB820104F1C9
:102640001402C74BD0182A460AF0A6F86019E21700
:1026500004EB92629211C31700EB9363B2EBA31FDA
:1026600025D12046E31704EB5373C3F3C203BF4FD6
:10267000FB5C6219D71702EB5777C7F3C207DFF885
:10268000ECC21CF80770BB43E71704EB9767BF1158
:10269000DFF8D4C21CF807703B432146E71700E07F
:1026A000A9E004EB9767BF110CF807303FE0E21791
:1026B00004EB92629211AC4B9A5C2146E31704EB57
:1026C0005373C3F3C203A94FFB5C1A432046E317BD
:1026D00004EB93639B11A44FFA54E11704EB91614F
:1026E00089114E1C04E0FF209F498855701C86B25A
:1026F0006019C11700EB9161B6EBA11FF3DB601904
:10270000C21700EB92629211974B9A5C6119CB173A
:1027100001EB5373C3F3C203944FFB5C62EA030201
:102720006019C31700EB93639B118F4FFA548B48CA
:102730000E38007D10F0200F08D18A48007840F054
:102740000100884908706019894908808548007827
:1027500010F0010F4FD0002606E08348805DFF286F
:1027600000D049E0701C86B281490888C11700EB8F
:1027700091618911491EB142EFDC7D4A1188CA1767
:1027800001EB92629211784B9A5C794B1888C317CF
:1027900000EB5373C3F3C203744FFB5CDB43DBB248
:1027A0009A4200D028E000206B49088070480288D7
:1027B0006B496A4809F0F0FF002168480E384175FE
:1027C00001756B480088001264490E390874684826
:1027D0000088C1B261480E38417400210183FFF7BF
:1027E00026FDC04381B25D480E38018360480088F1
:1027F000C0B2BDE8F08100BF0020FAE710B5044682
:1028000021465C4800680830FFF7A7FC5A4800786A
:10281000584909680872584841785648006841721A
:10282000554881785348006881725348C1785148AF
:102830000068C17210BD70B505464E480468042D8D
:1028400000D126E2454828304C4908604C490860D0
:10285000032D0DD1607E00F00F00032807D1208AE0
:1028600028B908204749087008F09FFEF5E313E2F5
:10287000022D70D13848008820B137480088401EAA
:10288000354908804048C078401C10F0FF003E49A0
:10289000C87011D108468078401C10F0FF00887085
:1028A0000AD108464078401C10F0FF00487003D160
:1028B00008460078401C08700020344908803449DC
:1028C0000880607E072802D0607E052808D1A07E9F
:1028D000401CA076A07E78287FD1002060767CE026
:1028E000607EB0B3208AA8B3A17E481EA07681BBCB
:1028F000E07E082808D0607E022802D0607E012891
:102900000FD1E07E05280CD10020607680201D4983
:10291000087008F04AFE142110480E3880F82F1075
:10292000FDE3E07E042801DD042000E0E07E0321D9
:102930008140A176E07E401CE0761648C08C401CA9
:1029400081B21448C184607E00F00F00092844D28F
:1029500022E042E036E041E054000020460700203B
:10296000600E0020520000202E140020D2C9000862
:1029700050000020380000204800002028000020DF
:102980002C000020340000204200002030000020F5
:10299000320000202C0E0020DFE800F01F05060B9F
:1029A000111F121F1300A7E30021F94880F82F1010
:1029B000A7E30420F749087008F0F7FDFEE300BF25
:1029C00000BFFCE3607E00F00F00032805D1082063
:1029D000F049087008F0E9FD3FE35DE1052D18D1ED
:1029E000ED480068808898B10020EC490860E8480C
:1029F0002A30EB490860EB4908600020EA4908806A
:102A0000EA4908800820E349087001F08AFA40E1A9
:102A100042E1E7484088401CE5494880DC48807B2B
:102A2000452808D008460088401C08800846C08811
:102A3000401CC88030E1D648417C007C01EB00207E
:102A4000DA490988884207DCD148417C007C01EBE7
:102A50000020D649088000E01EE1CD48007D10F03E
:102A60003F0F02D1CA48407D38B1FFF77FFDCF4903
:102A700008800846008800B90EE1CE480088CE499B
:102A80000988884205D1CB484088CB49498888428B
:102A900022D0BF48C07D11280CD1BD48C08BC7498A
:102AA0000988884206D1BA48008CC44949888842BE
:102AB00000D17EE0B648C08BBE490988884205D166
:102AC000B348008CBB494988884205D0B848008883
:102AD000401CB7490880DFE0FFF7A9FBA0F57F4164
:102AE000FF3909D0B2480088401CB1490880084627
:102AF000C089401CC881CFE0A548C07D062800D110
:102B000014E1A348C07D112800D152E0A048C07D47
:102B1000012809D0A6480088401CA549088008461D
:102B2000008A401C0882B7E0A148808A401C81B21C
:102B30009F488182964890F8220008280BD09C4834
:102B4000408A401C9A4948820846008B401C81B24A
:102B500097480183A0E000218D4880F82210808CE6
:102B60004FF6F771884206DB8948808C093081B2C4
:102B70008748818405E08648808C083081B284488B
:102B8000818400BF8248418BC183818B018400BF57
:102B900000BF884801887E484183864841887C4838
:102BA000818300BF8248C08A401C81B28048C182B4
:102BB000FDE37E4800881C387C49088080487649BF
:102BC00008604DE0744800688088F0B37048808CDD
:102BD00071490968898888423DD16F480068C0887A
:102BE00060B16B48408C6C490968C988884205D03F
:102BF00069480068C088B0F58A4F2CD166480068E3
:102C000000886D490988884206D163480068408879
:102C10006949498888421DD05F4800680088674933
:102C20000988884206D15C48006840886349498821
:102C300088420FD05648408B574909680988884216
:102C400009D15348808B544900E004E00968498861
:102C5000884200D10BE05048006810304E490860AF
:102C60004D4801685648A0308142ABD314E00020A3
:102C70004A49086002204749087045482A304849B7
:102C800008604849086000204749088001F049F978
:102C900000BF4548008800B963E2434800881C3003
:102CA00042490880084600880012394908743F48A4
:102CB0000088C1B23648417437480068017A344808
:102CC00081751121C17538480088083001023648E5
:102CD0000088083080B241EA202081B22C48C184AB
:102CE000002101852C4800688188294841842A48B0
:102CF0000068C1882648818400BF2E480188244886
:102D000041832C4841882248818300BF00BF22486C
:102D1000006801881E48C1831F48006841881C481C
:102D2000018400BF36301E490860FDE32048808BD7
:102D3000401C81B21E488183FFF7ACFAA0F57F41A9
:102D4000FF390BD01A48408B401C1949488308466C
:102D5000008C401C81B21648018402E2194C34E018
:102D6000607EA0B10A48808CA18888422CD1084896
:102D7000408CE188884227D10548408B21888842D1
:102D800022D10348808B618888421DD1D8E11BE0A5
:102D900038070020340000203C00002038000020CC
:102DA000280000202C0000203200002030000020ED
:102DB0002C0E00201A000020CEC90008CAC9000845
:102DC0008C0D0020180D00202034FD488442C7D906
:102DD000FC4890F82F0000F03F00022800D021E0CE
:102DE000F848808CF84908800020F84908700EE007
:102DF000F748F649097830F81100F3490988884204
:102E000000D19DE0F1480078401CF0490870EF487F
:102E100000780A28ECDBEF48408D401C81B2ED4879
:102E2000418500BFE74890F82F0010F0040F00D054
:102E300097E1E848808C401C81B2E64881841421E7
:102E4000E04880F82F102820E34908805021DD4811
:102E500080F82E1090F82900DC490870D94890F8C5
:102E60002D1080F82910D9480178D64880F82D1007
:102E700090F82800D5490870D24890F82C1080F8B6
:102E80002810D2480178CF4880F82C1090F82700FD
:102E9000CE490870CB4890F82B1080F82710CB480B
:102EA0000178C84880F82B1090F82600C7490870B0
:102EB000C44890F82A1080F82610C4480178C14808
:102EC00080F82A1090F82D00401C10F0FF01BD483A
:102ED00080F82D1018D190F82C00401C10F0FF0144
:102EE000B84880F82C100FD190F82B00401C10F03F
:102EF000FF01B44880F82B1006D190F82A00401C3E
:102F0000C1B2B04880F82A10AE48408CAE49088063
:102F1000AC48818C4184AC480188AA48818400BFB8
:102F2000418BC183818B018400BF00BFAB48018806
:102F3000A4484183A9484188A248818300BFEFE3A8
:102F400000240020A14908702DE09D4840389F4989
:102F5000097800EB4110407E30B9994840389B49D0
:102F6000097800EB411422E09548403897490978E8
:102F700000EB4110407E072810D14CB190484038FA
:102F80009249097800EB4110807EA17E884205DDE0
:102F90008B4840388D49097800EB41148B48007804
:102FA000401C8A490870894800780328CDDB00BF9F
:102FB00034B98848008D401C81B286480185D0E034
:102FC000874804600320A07620760020A0750420A6
:102FD000E0750020E0767B48808CA0807948408CAA
:102FE000E08000BF7748408B20807648808B6080EF
:102FF00000BF012060767B480078207379484178D3
:1030000061738178A173C178E173012020826D48DA
:1030100090F82910E17290F82810A17290F827100A
:10302000617290F8260020720120FFF7E7FB6548E7
:1030300090F82E0000F0F00050285CDD002063497D
:1030400008704CE06148007836305E49085C66499B
:1030500008700846007808B94CE086E262480078BB
:10306000012805D159480078401C5849087036E0BD
:103070005D480078022821D1544800783730514902
:10308000085C04281AD1514800783930095C4F484F
:10309000007838304B4A105C41EA00204A490880E9
:1030A0000846008840F2A651884201DD084601E04A
:1030B0004548008880B26082A0821BE043480078C7
:1030C00037304049085C00B914E040480078373098
:1030D0003C49085C3D49097808443C490870394836
:1030E00090F82E000521C1EB201038490978B1EB8A
:1030F000800FA7DB00BF00BF1021324880F82F10DF
:1031000000BF304890F82F0040F002002D4981F8B0
:103110002F0002212B4880F83610042100E031E214
:1031200080F83710052180F83810A62180F8391072
:103130002C20294908806021224880F82E100AE3BB
:10314000274804600020294908701E4890F82F0085
:1031500010F0040F06D0002060762020087008F0E0
:1031600024FA83E3174890F82E00001180001749D5
:103170000870194800880978401A143816490880E0
:10318000607E00F00F00022806D10E4890F82F0054
:1031900000F03F0012283DD00F480088002805DCD1
:1031A000084890F82F0010F0030F33D0054890F82E
:1031B0002600217A88422CD1024819E02AE277E1E0
:1031C000580D0020380700204E0000204C00002041
:1031D000780D00202C0E0020300000201A00002066
:1031E00038000020420000204D0000203400002064
:1031F00090F82710607A81420BD1F94890F8281096
:10320000A07A814205D1F64890F82910E07A8142EF
:1032100000D092E2F24890F82F0010F0100F53D037
:10322000208AE8B3218A04F10C00FEF796FFEC48EF
:1032300090F82A00EB490978884245D1E84890F88F
:103240002B00E849497888423ED1E54890F82C00A7
:10325000E4498978884237D1E14890F82D00E14966
:10326000C978884230D1DF4800782073DD48417842
:1032700061738178A173C178E173E07EE8B9217E42
:10328000A27E891A48B2A17DA0EBE10148B2A17DDE
:103290000144A175002801DA414248B2E17D00E015
:1032A00012E0A0EBA10148B2E17D0144E175E17DAE
:1032B000A27D01EBE201217600BF0120CA4908701E
:1032C000207EA07600202082607E00F00F0009287A
:1032D0006ED2DFE800F06D0525C2F6F5F4F3F200DA
:1032E000C148007810F0010F19D00320607640200B
:1032F000BD49087000202082BC480088002808DDF5
:103300000846007840F002000870B8480088FFF7CF
:1033100075FA0020B649088008F047F925E1A5E2D2
:10332000B148007810F0010F7ED0AD4890F82F0022
:1033300000F03F00122877D1A94890F82E0000F045
:10334000F00050285EDD0020AA4908704EE0A94830
:1033500000783630A249085CA74908700846007812
:1033600000B94EE0A4480078012805D1A1480078B2
:10337000401CA049087039E09F480078022824D1F9
:103380009C48007837309649085C04281DD199483C
:1033900000783930095C974800783830904A105CE2
:1033A00041EA0020954908800846008801E054E27F
:1033B000C1E140F2A651884201DD084601E08F4894
:1033C000008880B26082A0821BE08A480078373093
:1033D0008349085C00B914E086480078373080499A
:1033E000085C844909780844824908707C4890F850
:1033F0002E000521C1EB20107E490978B1EB800F2A
:10340000A5DB00BF03206076754890F82600207287
:10341000734890F82710617290F82810A17290F804
:103420002910E172012000E00DE0FFF7E7F94220EA
:103430006D490870002020826C4908806C49088022
:1034400008F0B3F891E020206749087008F0ADF863
:1034500000206B4909684876E4E4614890F82F0041
:1034600010F0010F2ED0607E10F0100F2AD1208AAC
:1034700000B1FBE15D490988491C88B2FFF7BEF93C
:103480005948007840F010005749087057480088A4
:10349000002804DD0846007840F00200087008F0BB
:1034A00084F801202082082060760020E07600BFAA
:1034B00011214B4880F82F1044E1CEE02FE130E19C
:1034C0000CE1D7E0464890F82F0010F0200F17D0FD
:1034D000434890F8351090F8340041EA00204949FB
:1034E00009680844474908603D4890F8351090F84D
:1034F000340041EA00203D490988081A3B49088008
:103500003A48008800280DDD607E10F0100F09D1C8
:103510003548007840F0020033490870334800888D
:10352000FFF76CF92E4800E071E190F8311090F847
:10353000300001EB002031490880A08A09888842C8
:1035400002DB2E48008810B9A08A2C4908802B483D
:10355000008860822448007810F0030F7CD000209F
:103560002349088008F021F800BF1F48007810F0B8
:10357000200F08D000201E490880607614211848CA
:1035800080F82F10DEE01848007810F0100F0DD0F2
:103590000020174908800120208204206076002046
:1035A000E07611210E4880F82F10CBE010480088FB
:1035B00000282CDD0C48007810F0010F01D000200D
:1035C0002082208A58B9608A09490988884202DA2B
:1035D000608A0749088006480088208217E013E0C7
:1035E0003807002048000020340000203000002070
:1035F000320000204C0000204D0000204E00002032
:103600003800002028000020208AAA4908800020D5
:10361000E07600BFA8480068A8490860A54800886F
:1036200000280BDD208A002808DD208A2830A449E4
:1036300008801821A34880F82F1087E0A24800785E
:1036400010F0020F08D028209D49088010219D48C5
:1036500080F82F107AE0FFE708E19B48007810F02F
:10366000010F06D00020607610209749087007F0FF
:103670009CFF60E092480088002803DD90480088A5
:10368000FFF7BCF88F4890F82F0010F0010F15D00D
:103690008D48007810F0010F05D0072060760020DB
:1036A000A076208201E0062060760120FFF7A6F8D0
:1036B00010208549087007F078FF3EE082480078C6
:1036C00010F0010F04D00520607600202082CDE0AC
:1036D0007B480088002800DD2FE0C7E0784800889C
:1036E000002803DD76480088FFF788F8754890F8D1
:1036F0002F0010F0010F0CD0072060760020A0767C
:103700000120FFF77BF810206F49087007F04DFF8C
:1037100013E06B480088002800DD0EE0A6E00CE016
:103720005BE06948007810F0010F03D00720607655
:103730000020A07600BF00BF98E01021614880F80B
:103740002F1000BF28205E49088000BF50215D482F
:1037500080F82E1000BF217A5A4880F82A10617A2A
:1037600080F82B10A17A80F82C10E17A80F82D10C7
:10377000217B80F82610617B80F82710A17B80F8E0
:103780002810E17B80F829100621C175A1884184A9
:10379000E188818400BF4D4801884A4841834B48F5
:1037A00041884848818300BF00BF2188C183618868
:1037B000018400BF607E10F0100F06D00021414848
:1037C00080F8311080F8301006E005213D4880F87F
:1037D0003010A62180F8311000BF80213948817552
:1037E0003748008800123749087435480088C1B24C
:1037F00034484174002180F8351080F83410418637
:10380000FEF748FDC04381B22E48418600BF4520E7
:103810002C49887300212B48C173417501752C48D0
:103820000088401C2A490880084600880012254963
:10383000887427480088C1B22248C17400210183DE
:10384000FEF7F5FCC04381B21E4801832148C08BBE
:10385000401C81B21F48C18300BF1E488088401CA5
:103860001C49888000201849087070BD0020144948
:1038700008801549087000BFF7E770B504460D468B
:10388000002D15DD0B490D800B48006884420FD0D8
:103890000846008840F2A651884202DD08460549E4
:1038A00008800448028821460348006808F074FF35
:1038B00070BD0000320000202C00002028000020F5
:1038C0003000002038070020340000201A000020BB
:1038D000400000202C0E00200020F34908700DE06D
:1038E000F148007800EB4000F04901EB8000002136
:1038F0000160ED480078401CEB490870EA48007808
:103900000828EDDB7047EA490978491CE84A11703C
:103910000021E54A117017E0E349097801EB410104
:10392000E24A02EB810001884288114307D0817A84
:10393000DF4A1278511A782901DB00210160DA4947
:103940000978491CD84A1170D74909780829E3DB5E
:10395000704710B502460023D34C23701FE0D24BB2
:103960001B7803EB4303D14C04EB830003888BB13A
:1039700043887BB113880488A3420BD153884488C1
:10398000A34207D10B6843608B880381C84B1B7827
:10399000837210BDC44B1B785B1CC34C2370C24B9D
:1039A0001B78082BDBDB0023BF4C237010E0BE4BE1
:1039B0001B7803EB4303BD4C04EB8300038813B96E
:1039C000438803B908E0B84B1B785B1CB64C2370E6
:1039D000B54B1B78082BEADB00BFB34B1B78082BD9
:1039E00034D10023B34C2370B34C2370AE4C2370FE
:1039F0001DE0AD4B1B7803EB4303AC4C04EB8300A1
:103A0000837AAB4C2478E31AAA4C2478A34209DDCC
:103A1000837AA74C2478E31AA64C2370A24B1B7818
:103A2000A54C2370A04B1B785B1C9F4C23709E4BB6
:103A30001B78082BDDDBA04B1B789B4C23702346A7
:103A40001B7803EB4303994C04EB8300136803607A
:103A50000B6843608B880381954B1B78837200BF92
:103A600097E710B5954800882A2803D2002093498B
:103A7000088010BD0020914908809148808AB0F5E7
:103A8000807F03D0B0F5007F54D141E08C48C08CDA
:103A90008C49098888423AD18948008D89494988EA
:103AA000884234D186491631881DFFF752FF4FF402
:103AB0000070834988820846D1F816200262498B3B
:103AC000818481490A68C0F81620898841837E492B
:103AD0000A68C0F806208988418101460A6A0260A6
:103AE000898C8180808B7649C8840846C18B01858A
:103AF0007448008872498883724841887048C1833D
:103B00004FF4C1606E4988812A206C49088011E019
:103B10006B48C08C6B49098888420AD16848008D7F
:103B200068494988884204D165491631881DFFF7E4
:103B300010FF00BF00BF00BF9BE710B56048C08BFF
:103B40006249098888420CD15D48008C5F494988E8
:103B5000884206D15A485E490A6802608988818095
:103B600091E05748C08B5B4909880840554909884E
:103B7000584A1288114088420BD15148008C55494F
:103B8000498808404F494988524A52881140884222
:103B900008D000BF50480088504908804E484088EF
:103BA000488008E000BF4648C08B4C490880444824
:103BB000008C488000BF00203B49087016E03A485E
:103BC000007800EB4000394901EB8004434800884D
:103BD0002188884205D1414840886188884200D1C7
:103BE00008E031480078401C2F4908702E480078C2
:103BF0000828E4DB00BF2C48007808283ED1FF22CB
:103C000006212F4808F0E8FD2D480021016281843B
:103C10002D490A68C0F80620898841812A490A6826
:103C2000C0F816208988418300BF2C4800882449A9
:103C3000C8842A4841882248018500BF00BF214826
:103C400000881F4988831F4841881D48C18300BFE1
:103C50004FF480701A498882C881082008820620A3
:103C600088740420C8744FF4C160888101F1360063
:103C70001B4908602A201149088010BD104861685E
:103C80000160218981800E480F490A68C0F806202A
:103C90008988418108200A498881084800880E30B7
:103CA0000649088000BFE8E75A00002046140020BB
:103CB0005C0000205D0000205B0000203000002040
:103CC000380700201A00002014000020E0C9000876
:103CD000DAC90008220000201E0000205600002043
:103CE0002800002070B504460D46656008F020FBF2
:103CF000206070BDD0E9001211440160704710B51A
:103D0000044608F015FB206010BD10B5044608F00D
:103D10000FFB2168401A6168884201DB012010BD59
:103D20000020FCE7014600BF11F8012B02E0491C0E
:103D3000501EC2B2002AFADC08780028F4D1481CD0
:103D400070472DE9F0410020D549087076E0D4484D
:103D50000078C0EBC00000EB4000D24901EB40040A
:103D60002078012802D02078022861D1207802280A
:103D700016D16078401E10F0FF0060700FD1A0785F
:103D8000401CC0B2A070082806D104202070002179
:103D9000601D07F0F5FF4CE0A078607006E048E099
:103DA00002202070012060700020A070BE480768CB
:103DB000002038607860B860B9480078FEF725FACE
:103DC00038800120B8700002B880B748006800F160
:103DD0000C05661D761E00BF761CA8466D1C0020D3
:103DE000B249087008E0307828706D1CAF48007840
:103DF000401CAE490870761C30782E2802D03078EE
:103E00000028F0D1A948007888F800003078002810
:103E1000E2D1A7480168296000792871681DA24A8B
:103E20001268801AC1B2A0480068FFF726FD09E0B9
:103E300000BF9B480078401C99490870984800785A
:103E4000042884DB00BFBDE8F0812DE9F0419648ED
:103E500007683888FEF7D9F996490870084600784F
:103E6000C0EBC00000EB40008E4901EB40049148DC
:103E70000078042853DA2078022850D103202070DB
:103E8000F87800F00F002071207938B104202070FC
:103E90000021601D07F074FFBDE8F081B888FEF7CF
:103EA000B4F985490870F888FEF7AFF983490870BE
:103EB0007D4800680C30FFF735FF051D2BE02878A2
:103EC00010F0C00F01D0AD1C03E02846FFF72AFF19
:103ED00005462E463088B0F5807F11D17088B0F548
:103EE000807F0DD13089B0F5806F09D17089E08471
:103EF000B189218504F12601601D07F041FFCBE760
:103F00003089FEF782F905F10A0145186B480078FF
:103F1000401E6A490870694800780028CFDC00BF5D
:103F2000BAE710B566480068C088B0F5545F0DD197
:103F30006448007810F0080F01D0FFF702FF6148D5
:103F4000007810F0020F01D0FFF77FFF10BD70B5B1
:103F5000054600205C4908705C4908705C4908709F
:103F600022E05B480078C0EBC00000EB40004D4908
:103F700001EB4004207800B91AE0E078554909784F
:103F8000081A52490978884209DDE07851490978D0
:103F9000081A4E4908704E4800784B4908704C4842
:103FA0000078401C4A490870494800780428D8DB4A
:103FB00000BF4748007804280CD1434800784449A2
:103FC000087008460078C0EBC00000EB400035499F
:103FD00001EB40042946601D08F06DFC01202070B3
:103FE0003C480078E0703B480078401C3949087034
:103FF00070BD70B5054600203749087018E0364896
:104000000078C0EBC00000EB4000264901EB400403
:104010002078032807D1611D284608F031FC10B92B
:1040200004F1260070BD2C480078401C2A49087015
:10403000294800780428E2DB0020F3E727480068DD
:1040400008B90020704725480068FBE710B5044612
:104050002248006818B100202049096888804FF480
:1040600054512046FEF7D6F91C49086010BD0020C7
:104070001B4908700EE0032019490978C1EBC10102
:1040800001EB4101074A02F8110015480078401C75
:1040900013490870124800780428ECDB70470000D0
:1040A00064000020A61400202800002065000020E5
:1040B000660000206D0000206B0000206C000020D6
:1040C0003C00002034000020700000206F00002021
:1040D0006E000020730000207100002060000020AE
:1040E00072000020F9487047F9487047F8482838AE
:1040F0007047F748303880887047F5483038C088B6
:104100007047704710B50020F14930394870F048C9
:1041100008F0AEFB00F11504ED48283808F0A8FBC4
:104120002044001DEA493039A1F896000020A1F88A
:104130009400A1F8600110BD0320E54930394870B2
:1041400070472DE9F04F99B007460E469046DFF8CC
:1041500084934946384600F03BFB50B93846FFF798
:1041600048FF8146B9F1000F03D1002019B0BDE826
:10417000F08F3046FEF749F8054601464846FEF7FF
:10418000CEF804462CBB1822D3A101A808F004FBEA
:10419000002507A9484602F0DDFF07A808F068FBE4
:1041A000C5B201A808F064FB824607A94819524627
:1041B00001A908F0F1FA01A808F05AFB2844C5B299
:1041C000002007A94855294607A803F0F8F9002060
:1041D000CCE71422C6A102A808F0DEFA0025E08888
:1041E000FEF713F88246A088FEF70FF8834607AB68
:1041F0005246214606F00FF907A808F039FBC5B270
:1042000002A808F035FB824607A94819524602A9C0
:1042100008F0C2FA02A808F02BFB2844C5B200201F
:1042200007A94855294607A803F0C9F900BFA848BF
:1042300030388680A088A6493039C880642241463B
:10424000A34808F000FB28223946A148283808F086
:10425000FAFAFFF757FF012088E770B504460E46CB
:1042600015462A463146204608F0EDFA601970BD21
:104270002DE9F04196483038B0F89600002863DD0B
:10428000A04805682C4604229F492046FFF7E5FF19
:1042900004468F4808F0ECFAC7B23A468C492046EB
:1042A000FFF7DBFF0446202004F8010B08229749A2
:1042B0002046FFF7D2FF0446022295492046FFF729
:1042C000CCFF0446062293492046FFF7C6FF04466A
:1042D0007F48283808F0CCFAC7B23A467C492839DA
:1042E0002046FFF7BAFF0446022289492046FFF71D
:1042F000B4FF0446022286492046FFF7AEFF04467B
:104300000020207072483038B0F896008249096861
:10431000498A884203DD80480068408A03E06C488F
:104320003038B0F8960086B2284608F0A1FA87B275
:104330003946284603F043F9284608F099FA07461B
:1043400001462846FFF799FABDE8F0816049303907
:10435000B1F89610002920DD5D493039B1F896108A
:104360006D4A1268528A914203DD6B490968498A95
:1043700003E057493039B1F8961088B254493039C2
:10438000B1F89610091A524A303AA2F8961011461E
:10439000B1F894100144A2F89410704770B5044627
:1043A00069E058480068017849483038B0F8602121
:1043B0009830815453480068401C52490860601E80
:1043C00084B243483038B0F860119830405C0A2815
:1043D00048D108224D493E48683008F075FA30B19E
:1043E00008224A493A48683008F06EFA58BB384DFE
:1043F00071350020A5F1A1018870042247492846A3
:1044000008F062FA20B90120A5F1A101887021E02D
:1044100004224349284608F057FA28B104224149AA
:10442000284608F051FA20B902202949303988700D
:1044300010E0002226483038B0F86001401E2449C0
:1044400068310A5406E020203749087007F051FD12
:10445000002070BD00201E493039A1F86001012004
:10446000487010E01A483038B0F86001401C184914
:104470003039A1F86001002C05DD15483038B0F85E
:104480006001C8288DD300BF2046E2E710B503467F
:1044900017E01878254C20702046007810F0400F67
:1044A00004D02046007840F02000207008781F4C8F
:1044B0002478A04201D0012010BD5B1C491C501E75
:1044C000C2B2002AE5DC0020F6E70000B0160020AA
:1044D0007E150020740000202063616E6E6F7420D2
:1044E000626520636F6E6E6563742E0D0A000000B6
:1044F00020697320636F6E6E656374696E672E2E1C
:104500000D0A000028000020FBC9000809CA0008A5
:104510003DCA000836CA000838000020ECC900086F
:10452000F1C90008F6C90008340000207800002016
:1045300070B505468DE09E48006801789D48B0F84A
:104540006021983081549A480068401C984908605E
:10455000681E85B29748B0F860119830405C0A2810
:1045600070D1944890F898000D2804D10220914908
:104570004870284670BD00228E48B0F86001401E89
:104580008C4998310A540E228B498A489830FFF79B
:104590007DFF80B93B218748983008F060F90446D8
:1045A0000CB1002020708349A631202201F1BC000B
:1045B00008F049F940E00A2280497E489830FFF728
:1045C00065FFC8BB7B4CA23407227D49204608F01A
:1045D0007BF958BBE41D00207A4908701DE0207863
:1045E00040B120782F2805D02078202802D02078CC
:1045F0003A2806D100216F480830724A1278815457
:1046000013E021786B4808306E4A12788154641C9C
:104610006C480078401C6B4908706648B0F860012F
:10462000C01F684909788842D9DC00BF642221464E
:104630006048303008F007F900205E49A1F86001B9
:1046400007E0FFE75B48B0F86001401C5949A1F85A
:104650006001002D05DD5748B0F86001C828FFF45F
:104660006AAF284686E710B5574804885148407815
:1046700018B92046FFF792FE04464E4840780128BC
:1046800005D1002C03DD2046FFF752FF0446002C25
:104690000CDD48484078022808D146488078022836
:1046A00004D021464248006807F07AFD10BD10B5DD
:1046B0004648007810F0400F08D000203D490870AF
:1046C000487007F068FCFFF7D3FD10BD394840780B
:1046D000032805D107F0D1FB20203C490870F4E7FE
:1046E0003A48007810F0200F01D007F002FC37485C
:1046F000007810F0800F01D007F011FC33480078EB
:1047000010F0010F04D000202A490870FFF71EFEA8
:104710002E48007810F0020F04D0002025490870C0
:10472000FFF7A1FF2948007810F0040F09D12748AE
:10473000007810F0020F04D12448007810F0010F27
:1047400002D0FFF795FD13E02048007810F0080F25
:104750000ED018480078401C1649087008460078AA
:10476000642805D107F0DBFB202018490870ACE76E
:104770001648007810F0100F18D00E4880780228E4
:1047800004D00021084607F00BFD0FE0094808306F
:10479000FFF72FFC18B907480830FFF7D8FB05488A
:1047A000818800F130020830FFF7CBFC00BF8CE7B6
:1047B000280000204E15002012CA00082BCA00084D
:1047C000E4C90008790000203000002034000020F7
:1047D000F0B502460B460024002524E0002600BF69
:1047E0001178701CC6B2042E01DD0020F0BD2E2908
:1047F00000D019B91C705B1C00240DE0302909DBC6
:10480000392907DCA1F1300004EB840700EB4700F5
:10481000C4B201E00020E9E7521C2E2901D0002992
:10482000DED1681CC5B2042DD8DB0120DEE7000014
:104830002DE9F04194B006460D460024FF49096871
:10484000C888FDF7E2FC0746FC4909688888FDF73F
:10485000DCFC804602AB3A46F8480168404605F069
:10486000DAFD02A808F004F8C4B202A82044F4A1BA
:1048700009880180A01CC4B20A226946304601F0B2
:1048800074FD684607F0F4FF074602A908193A4686
:10489000694607F081FF684607F0EAFF2044C4B28A
:1048A00002A8E8A109780155601CC4B2284607F0A7
:1048B000DFFF074602A908193A46294607F06CFFB0
:1048C000284607F0D5FF2044C4B2002002A90855AD
:1048D000214602A802F073FE14B0BDE8F08170B565
:1048E0000124D9480088BA287BD042DC8F2879D0AF
:1048F0001FDC812877D00DDC7C2875D005DC90B3D7
:10490000632872D07B2871D1FAE37D286FD080288C
:104910006CD1F6E385286BD006DC822869D0832829
:1049200068D0842862D1EDE3862876D08E285DD1C8
:10493000E9E3A52872D00EDC9A2870D006DC902816
:104940006ED098286DD0992850D1EFE3A32869D074
:10495000A4284BD1EBE3AF287BD005DCAD2879D080
:10496000AE2843D1F5E34DE0B12874D0B9283DD14C
:10497000F0E3E32870D01EDCD3286ED00EDCC7280D
:104980006CD006DCBB286AD0BD2869D0C6282DD1E2
:10499000F2E3C82875D0CA2828D1EEE3DE2871D00A
:1049A00004DCD5286FD0DD2820D1E7E3DF286BD0E9
:1049B000E2281BD1F5E3ED2867D00ADCA0F1E40082
:1049C000092813D2DFE800F0F91212F8F7F612F511
:1049D000F400FC287ED00EDCF8287CD0FA2805D123
:1049E000F1E3F1E3F1E3F1E3F1E3F1E375E0F0E3A7
:1049F000F0E3F0E3F0E3A0F5807003386CD0032817
:104A00006BD1EAE300BF63208F4908800A218E48FA
:104A100000F032FF38B9002070BDFEE3FEE3FEE394
:104A2000FEE3FEE3FEE300BF03228849864824300C
:104A300007F04AFFA8B11020854908708249243147
:104A40000220FFF7F5FE00BF00207F49088001200B
:104A5000E2E7E8E3E8E3E8E3E8E3E8E3E8E3E8E300
:104A6000E8E300BF7B20784908807A4807F000FF20
:104A7000054602467749744800F069FE30B90020C7
:104A8000CAE7F8E3F8E3F8E3F8E3F8E300BF00BFB0
:104A90007C206D4908807048006807F0E9FE0546F3
:104AA00002466D480168684800F051FE08B90020D0
:104AB000B2E700BF00BF7D2063490880674807F068
:104AC000D7FE0546024665495F4800F040FE28B91A
:104AD0000020A1E7F2E3F2E3F2E3F2E300BF00BF5C
:104AE0008020594908800A21574800F0C5FE08B9BE
:104AF000002091E700BF00BF8120534908800A21B0
:104B0000514800F0B9FE08B9002085E700BF00BF9A
:104B100082204D4908800A214B4800F0ADFE08B9BB
:104B2000002079E700BF00BF8320474908800A21A1
:104B3000454800F0A1FE08B900206DE700BF00BFA6
:104B40008420414908800A213F4800F095FE08B9B9
:104B5000002061E700BF00BF85203B4908800A2193
:104B6000394800F089FE08B9002055E700BF00BFB2
:104B70008620354908800A21334800F07DFE08B9B7
:104B8000002049E700BF032235492F48243007F0B1
:104B90009BFE98B110202E4908702B492431032028
:104BA000FFF746FE00BF002027490880012033E7B9
:104BB000BFE3BDE3BBE3B9E3B7E3B5E300BF8E20DA
:104BC00021490880274807F053FE0546024625493B
:104BD0001D4800F0BCFD08B900201DE700BF00BF64
:104BE0008F20194908801D4807F042FE05460246FD
:104BF0001A49154800F0ABFD08B900200CE700BFCA
:104C000000BF9020104908800A210F4800F034FEB0
:104C100008B9002000E700BF032213A10A4824308E
:104C200007F03CFE30B310200949087006492431D2
:104C30000420FFF7FDFD00BF002017E03800002032
:104C40000D0A00003A00000034170020AFCB000826
:104C500034000020B9CB00087C00002009CC0008FB
:104C6000ABCB0008BFCB000833333400FF490880CA
:104C70000120D1E600BF9820FC490880FC4807F0DD
:104C8000F7FD05460246FA49F84800F060FD08B90C
:104C90000020C1E600BF00BF9920F4490880F54814
:104CA00007F0E6FD05460246F249F04800F04FFDE8
:104CB00008B90020B0E600BF00BF9A20EB49088089
:104CC0000A21EA4800F0D8FD08B90020A4E600BF98
:104CD0000322AFF26C01E548243007F0DFFD68B134
:104CE0001020E5490870E14924310520FFF7A0FDB7
:104CF00000BF0020DD49088001208DE600BFA32011
:104D0000DA490880DD4807F0B3FD05460246DB4975
:104D1000D64800F01CFD08B900207DE600BF00BFAA
:104D2000A420D2490880D34807F0A2FD05460246D8
:104D3000D049CE4800F00BFD08B900206CE600BF5A
:104D400000BFA520C94908800A21C84800F094FD89
:104D500008B9002060E600BF0322C9A1C34824307F
:104D600007F09CFD68B11020C3490870BF49243189
:104D70000620FFF75DFD00BF0020BC490880012030
:104D80004AE600BFAD20B9490880BE4807F070FD73
:104D900005460246BB49B54800F0D9FC08B90020D9
:104DA0003AE600BF00BFAE20B0490880AF49486D69
:104DB00007F05EFD0546AD482A46416D00F0C7FC90
:104DC00008B9002028E600BF00BFAF20A74908802F
:104DD000A84807F04DFD05460246A649A34800F045
:104DE000B6FC08B9002017E600BF00BFB1209F49FC
:104DF00008800A219D4800F03FFD08B900200BE61D
:104E000000BF9A4890F8240032280DD010209A490B
:104E10000870964924310720FFF70AFD00BF0020E3
:104E2000924908800120F7E500BFB9208F4908802A
:104E3000954807F01DFD0546024693498B4800F052
:104E400086FC08B90020E7E500BF00BFBA2087490B
:104E500008808649C86C07F00BFD054683482A4642
:104E6000C16C00F074FC08B90020D5E500BF00BF9C
:104E7000BB207E4908807F4807F0FAFC05460246C1
:104E80007C497A4800F063FC08B90020C4E500BF03
:104E900000BFBD20754908800A21744800F0ECFC71
:104EA00008B90020B8E500BF704890F82400322807
:104EB0000DD01020704908706C4924310820FFF78C
:104EC000B7FC00BF0020694908800120A4E56748BD
:104ED000006D90B300BFC620644908806A4807F09F
:104EE000C7FC054602466849604800F030FC08B936
:104EF000002091E500BF00BFC7205C4908805B49E6
:104F0000086D07F0B5FC054658482A46016D00F0CB
:104F10001EFC08B900207FE500BF00BFC820534930
:104F20000880544807F0A4FC0546024651494F4802
:104F300000F00DFC10B900206EE51FE000BF00BFBF
:104F4000CA204A4908800A21484800F095FC08B95F
:104F5000002061E500BF454890F8240032280DD0BC
:104F6000102045490870414924310920FFF760FCB1
:104F700000BF00203D49088001204DE500BFD3203F
:104F80003A490880414807F073FC054602463F490C
:104F9000364800F0DCFB08B900203DE500BF00BF4B
:104FA000D520324908800A21304800F065FC08B954
:104FB000002031E500BF2D4890F8240033280DD0A3
:104FC00010202D490870294924310A20FFF730FCB0
:104FD00000BF00202549088001201DE500BFDD201D
:104FE000224908802A4807F043FC05460246284922
:104FF0001E4800F0ACFB08B900200DE500BF00BF63
:10500000DE201A4908801949C86C07F031FC0546B2
:1050100016482A46C16C00F09AFB08B90020FBE450
:1050200000BF00BFDF2011490880124807F020FCB4
:10503000054602460F490D4800F089FB08B90020DB
:10504000EAE400BF0948006D78B100BFE2200749DB
:105050000880104807F00CFC054602460D4903483D
:1050600000F075FBC0B90020D6E439E03417002009
:10507000D016002009CC00083400002002170020C0
:1050800032333500CACB0008D6CB0008E0CB00088D
:10509000E7CB0008ECCB000800BF00BFE320FE49CF
:1050A0000880FD49086D07F0E3FB0546FA482A46EB
:1050B000016D00F04CFB08B90020ADE400BF00BF5B
:1050C000E420F5490880F54807F0D2FB0546024682
:1050D000F249F14800F03BFB08B900209CE400BF16
:1050E00000BFE720EC490880ED4807F0C1FB05460A
:1050F0000246EB49E84800F02AFB28B900208BE47F
:10510000E9E0EEE0F1E0F3E000BF00BFE820E249B3
:105110000880E149486D07F0ABFB0546DE482A46AA
:10512000416D00F014FB18B9002075E4E4E0E6E0FE
:1051300000BF00BFE920D8490880D84807F098FB95
:1051400005460246D549D44800F001FB18B90020B5
:1051500062E4D7E0D9E000BF00BFEB20CE49088071
:10516000D04807F085FB05460246CE49CA4800F004
:10517000EEFA20B900204FE4CBE0CDE0CFE000BF55
:1051800000BFEC20C4490880C349886D07F070FB5C
:105190000546C1482A46816D00F0D9FA10B90020B1
:1051A0003AE4BFE000BF00BFED20BB490880BB4828
:1051B00007F05EFB05460246B849B74800F0C7FA5B
:1051C00060B9002028E4B7E0A0E092E08AE084E043
:1051D0007FE084E08AE086E086E0B0E000BF00BFC8
:1051E000F820AD490880AC48B0F86020C16D00F0EF
:1051F000AEFA08B900200FE400BF00BFFA20A649AC
:105200000880A94807F034FB05460246A649A24893
:1052100000F09DFA78B900201AE468E070E06CE0D4
:1052200068E068E06AE06EE06BE06DE07BE074E00F
:1052300070E06CE06CE000BF00BFFC209649088085
:105240000A21954800F018FB08B9002018E400BFB7
:10525000914890F82400322812D010209349087009
:105260008D4924310B20FFF7E3FA00BF00208A4963
:105270000880012004E44EE052E04FE051E059E0A4
:1052800000BF40F2031084490880894807F0F0FA13
:10529000054602468649804800F059FA08B90020C0
:1052A00006E400BF00BF4FF483707B4908800A21E9
:1052B000794800F0E1FA28B900200AE43DE03AE03C
:1052C0003CE03DE000BF744924310020FFF7B0FA14
:1052D00036E0FFF79BBBFFF7C8BBFFF7DCBBFFF770
:1052E000EDBB00E40BE416E421E42CE437E442E4F3
:1052F00068E478E488E4C1E4D1E4E1E402E512E59D
:1053000022E542E552E563E573E591E5A1E5B2E505
:10531000C2E5E3E5F3E504E615E633E643E661E6D8
:1053200071E682E695E6BCE6CDE6DDE6F1E604E769
:1053300016E729E73BE756E763E781E7A5E7B6E726
:1053400000BF002400205449088002200DE470B5FD
:1053500098B0142257A101A807F01EFA00245A4958
:105360000968C888FCF751FF0546574909688888CD
:10537000FCF74BFF064606AB2A4653480168304609
:1053800005F049F806A807F073FAC4B201A807F0BF
:105390006FFA054606A908192A4601A907F0FCF983
:1053A00001A807F065FA2044C4B2002006A90855F8
:1053B000214606A802F003F918B070BD10B53B48AD
:1053C000007810F0400F02D0FFF7C1FF10BD374842
:1053D000007810F0100F04D000202F4981F842000F
:1053E000F4E73248007810F0200F04D12F480078FD
:1053F00010F0800F08D00020274981F8420033A127
:105400000120FFF715FAE1E7FFF769FA00BFDDE7D2
:10541000314A106000BF0A88304B1A804A885A808F
:1054200000BF70472DE9F04F99B006460F469046F1
:105430009946DDE922AB4FF4C8512848FCF76FFFCD
:1054400004463CBB182226A101A807F0A5F90025B7
:1054500007A9224801F07EFE07A807F009FAC5B2A5
:1054600001A807F005FA07A90090481901A9009AB8
:1054700007F092F901A807F0FBF92844C5B2002013
:1054800007A94855294607A802F099F8002019B045
:10549000BDE8F08F30E000003417002009CC000890
:1054A000F1CB0008F8CB00080CCC00083400002039
:1054B00002CC000820636F6E6E65637420737563A1
:1054C000636565642E0D0A003800002074696D65FF
:1054D000206F7574000000007C0000208000002018
:1054E0002063616E6E6F7420626520636F6E6E65FF
:1054F00063742E0D0A000000142228A102A807F0F0
:105500004BF90025E088FCF780FE0190A088FCF7AD
:105510007CFE07AB00902146019A04F07CFF07A8AF
:1055200007F0A6F9C5B202A807F0A2F907A90190F1
:10553000481902A9019A07F02FF902A807F098F973
:105540002844C5B2002007A94855294607A802F0FB
:1055500036F800BF0120164981F842000846C664AB
:105560000765C0F85480C0F85890C0F85CA0A0F857
:1055700060B0A088A1F846001E2224310C4800F03B
:1055800008FA012019B0BDE8F08F0948B0F84600CC
:1055900070470020064981F8420070472069732057
:1055A000636F6E6E656374696E672E2E0D0A000060
:1055B000341700200160828070472DE9F0410446D5
:1055C0000F4616461D462888A188884214DA2A8884
:1055D0003168206807F0E0F82988206808442060D6
:1055E000A0882988401AA080298830680844306043
:1055F00000202880BDE8F0812888A188884212D147
:105600002A883168206807F0C7F82988206808448C
:1056100020600020A0802988306808443060002085
:1056200028800120E6E7A2883168206807F0B4F8F6
:10563000A1882068084420602888A188401A288012
:10564000A1883068084430600020A0800120D1E7A4
:1056500030B5044613E010680578206805701068BE
:10566000401C10602068401C20601888401E188074
:10567000A088401EA0808D4201D1022030BDA088AC
:10568000002802DD18880028E5DC188808B9002009
:10569000F4E70BE0106805781888401E1880106841
:1056A000401C10608D4201D10320E7E718880028D4
:1056B000F0DC0120E2E710B5044694F8200006284B
:1056C00004D1BE48007810F0040F15D0208ABC49E0
:1056D0000968498A884206DDB94A1268518A6068B9
:1056E000FEF7CBF803E0218A6068FEF7C6F80620D3
:1056F00084F82000012010BD0020FCE7014691F84D
:105700002000062821D1AD48007810F0010F1CD0F0
:10571000088AAB4A1268528A90420CDD088AA84A6D
:105720001268528A801A0882A54A48681268528A0A
:105730001044486005E00A8A486810444860002028
:105740000882012081F8200070470020FCE72DE945
:10575000F04104460E4615460127608810B1CF2857
:1057600025D123E02DB900BF002060800120BDE8D5
:10577000F08166602582002084F820000FE000BFE1
:10578000CF2060802046FFF7B9FF80462046FFF714
:1057900092FF18EA000F01D10020E8E700BF208A3D
:1057A0000028ECDC002084F8200000E0EAE700BFDD
:1057B0000027002060800220D9E72DE9F04104464F
:1057C0000D4616460127608810B1EE2830D12EE034
:1057D0002DB900BF002060800120BDE8F081304677
:1057E000A8472082774800686060002084F8200085
:1057F00000BF7248007810F0040F01D03046A8476F
:1058000000BFEE2060802046FFF778FF80462046EC
:10581000FFF751FF18EA000F01D10020DDE700BFBC
:10582000208A0028E5DC002084F8200000E0EAE778
:1058300000BF0027002060800220CEE70146088BD1
:10584000CA69101A80B270470146488A002801DDF3
:105850000120704791F82000022804D1032081F82C
:1058600020000020F5E75548007810F0020F01D025
:105870000120EEE70020ECE770B504460D46012656
:10588000608820B1A0F580701B3835D133E0E06925
:1058900082B204F11400E168FFF78CFE00BF608A59
:1058A00098B900BF40F21B1060802046FFF7CCFF84
:1058B00008B9002070BD00BF022084F820004148D4
:1058C0000068A06040480088608204F1120304F17F
:1058D00008022946981CFFF7BBFE10F0020FDED02D
:1058E0002046FFF7ABFF28B9002084F8200000BF56
:1058F0006080DFE700E0D8E700BF0026002060807E
:105900000220D7E770B504460125608818B1B0F5CC
:105910009B7F38D136E0E06982B204F11400E1687F
:10592000FFF748FE00BF608AB0B900BF4FF49B701C
:1059300060802046FFF788FF08B9002070BD00BFD7
:1059400022A007F011F8022084F820001D4800680A
:10595000A0601D4800886082E06981B204F11203F2
:1059600004F10802981CFFF728FE0128DBD120462D
:10597000FFF764FF28B9002084F8200000BF608092
:10598000DCE700E0D5E700BF0025002060800220B2
:10599000D4E770B504460E461546002084F8200072
:1059A0006082E660E561AAB2314604F11400FFF7B7
:1059B00001FE00202080608070BD000034000020C7
:1059C0003800002028000020300000205761697452
:1059D000656420666F72206E6577646174610A0089
:1059E00070B505460C4600261020FF49086004F0FB
:1059F0001F0040EA0506304600F0FEFAFF2000F0E6
:105A0000FBFA064614F0800F03D0FF2000F0F4FAF2
:105A100006461020F5490860304670BD2DE9F0417A
:105A200004460D46164600271020EF49086005F091
:105A30001F0040EA0407384600F0DEFA37463846D1
:105A400000F0DAFA1020EA49C1F81008BDE8F08148
:105A500070B505460C461020E34908604FF03A0047
:105A600000F0CAFA05E06D1E002000F0C5FA2070B3
:105A7000641C002DF7D1002020701020DB49086045
:105A800070BD70B504460D461020D74908604FF030
:105A90007A0000F0B1FA04E0641E287800F0ACFA55
:105AA0006D1C002CF8D11020D049086070BD10B5D5
:105AB000044604F06000CF49097888420ED00322E2
:105AC0001F21A020FFF7AAFFC4F341121F2180204D
:105AD000FFF7A4FF04F06000C649087010BD10B5C0
